{
  "contractName": "CredentialAnchor",
  "abi": [
    {
      "anonymous": false,
      "inputs": [
        {
          "indexed": false,
          "internalType": "bytes32",
          "name": "proofHash",
          "type": "bytes32"
        }
      ],
      "name": "ProofAnchored",
      "type": "event"
    },
    {
      "inputs": [
        {
          "internalType": "bytes32",
          "name": "",
          "type": "bytes32"
        }
      ],
      "name": "anchoredProofs",
      "outputs": [
        {
          "internalType": "bool",
          "name": "",
          "type": "bool"
        }
      ],
      "stateMutability": "view",
      "type": "function",
      "constant": true
    },
    {
      "inputs": [
        {
          "internalType": "bytes32",
          "name": "proofHash",
          "type": "bytes32"
        }
      ],
      "name": "storeProof",
      "outputs": [],
      "stateMutability": "nonpayable",
      "type": "function"
    },
    {
      "inputs": [
        {
          "internalType": "bytes32",
          "name": "proofHash",
          "type": "bytes32"
        }
      ],
      "name": "verifyProof",
      "outputs": [
        {
          "internalType": "bool",
          "name": "",
          "type": "bool"
        }
      ],
      "stateMutability": "view",
      "type": "function",
      "constant": true
    }
  ],
  "bytecode": "0x608060405234801561001057600080fd5b5061026e806100206000396000f3fe608060405234801561001057600080fd5b50600436106100415760003560e01c8063753ef909146100465780638952877b14610076578063b142b4ec14610092575b600080fd5b610060600480360381019061005b91906101ab565b6100c2565b60405161006d91906101f3565b60405180910390f35b610090600480360381019061008b91906101ab565b6100e2565b005b6100ac60048036038101906100a791906101ab565b610147565b6040516100b991906101f3565b60405180910390f35b60006020528060005260406000206000915054906101000a900460ff1681565b600160008083815260200190815260200160002060006101000a81548160ff0219169083151502179055507f5b5eebbabf7622bd02e158cb63de5cf3de5c377101ed6f7de0118f35e3f4c17c8160405161013c919061021d565b60405180910390a150565b600080600083815260200190815260200160002060009054906101000a900460ff169050919050565b600080fd5b6000819050919050565b61018881610175565b811461019357600080fd5b50565b6000813590506101a58161017f565b92915050565b6000602082840312156101c1576101c0610170565b5b60006101cf84828501610196565b91505092915050565b60008115159050919050565b6101ed816101d8565b82525050565b600060208201905061020860008301846101e4565b92915050565b61021781610175565b82525050565b6000602082019050610232600083018461020e565b9291505056fea26469706673582212209b19ab32fe710070e18eff46a2de0c8e24d618b775640a92e9f4dac66485f31264736f6c63430008130033",
  "immutableReferences": {},
  "source": "// SPDX-License-Identifier: MIT\npragma solidity ^0.8.9;\n\ncontract CredentialAnchor {\n    mapping(bytes32 => bool) public anchoredProofs;\n    event ProofAnchored(bytes32 proofHash);\n\n    function storeProof(bytes32 proofHash) public {\n        anchoredProofs[proofHash] = true;\n        emit ProofAnchored(proofHash);\n    }\n\n    function verifyProof(bytes32 proofHash) public view returns (bool) {\n        return anchoredProofs[proofHash];\n    }\n}\n// This contract allows for the anchoring of cryptographic proofs, such as hashes of credentials or other data.\n// It provides a way to store and verify these proofs on the blockchain, ensuring their integrity and authenticity.\n// The `storeProof` function allows anyone to anchor a proof by providing its hash, while the `verifyProof` function\n// checks if a given proof hash has been anchored.\n// The `ProofAnchored` event is emitted whenever a proof is successfully anchored, \n// allowing for tracking and monitoring of anchored proofs on the blockchain.\n// This contract is used in conjunction with other contracts, such as a DID registry or trust registry, \n// to enhance the security and trustworthiness of digital credentials and identities on the blockchain.",
  "sourcePath": "/Users/rdm/Desktop/oss/AuthentiCred/blockchain/Authenticred_contracts/contracts/CredentialAnchor.sol",
  "compiler": {
    "name": "solc",
    "version": "0.8.19+commit.7dd6d404.Emscripten.clang"
  },
  "schemaVersion": "3.4.16",
  "updatedAt": "2025-08-31T18:52:22.058Z",
  "networkType": "ethereum",
  "devdoc": {
    "kind": "dev",
    "methods": {},
    "version": 1
  },
  "userdoc": {
    "kind": "user",
    "methods": {},
    "version": 1
  }
}