{
  "contractName": "DIDRegistry",
  "abi": [
    {
      "anonymous": false,
      "inputs": [
        {
          "indexed": true,
          "internalType": "string",
          "name": "did",
          "type": "string"
        },
        {
          "indexed": false,
          "internalType": "string",
          "name": "publicKey",
          "type": "string"
        }
      ],
      "name": "DIDRegistered",
      "type": "event"
    },
    {
      "inputs": [
        {
          "internalType": "string",
          "name": "",
          "type": "string"
        }
      ],
      "name": "didToPublicKey",
      "outputs": [
        {
          "internalType": "string",
          "name": "",
          "type": "string"
        }
      ],
      "stateMutability": "view",
      "type": "function",
      "constant": true
    },
    {
      "inputs": [
        {
          "internalType": "string",
          "name": "did",
          "type": "string"
        },
        {
          "internalType": "string",
          "name": "publicKey",
          "type": "string"
        }
      ],
      "name": "registerDID",
      "outputs": [],
      "stateMutability": "nonpayable",
      "type": "function"
    },
    {
      "inputs": [
        {
          "internalType": "string",
          "name": "did",
          "type": "string"
        }
      ],
      "name": "resolveDID",
      "outputs": [
        {
          "internalType": "string",
          "name": "",
          "type": "string"
        }
      ],
      "stateMutability": "view",
      "type": "function",
      "constant": true
    }
  ],
  "bytecode": "0x608060405234801561001057600080fd5b50610b0a806100206000396000f3fe608060405234801561001057600080fd5b50600436106100415760003560e01c80633549e881146100465780637e5c39e9146100765780639d7f0bbf14610092575b600080fd5b610060600480360381019061005b91906104f3565b6100c2565b60405161006d91906105bb565b60405180910390f35b610090600480360381019061008b91906105dd565b610178565b005b6100ac60048036038101906100a791906104f3565b6102e9565b6040516100b991906105bb565b60405180910390f35b60008180516020810182018051848252602083016020850120818352809550505050505060009150905080546100f790610684565b80601f016020809104026020016040519081016040528092919081815260200182805461012390610684565b80156101705780601f1061014557610100808354040283529160200191610170565b820191906000526020600020905b81548152906001019060200180831161015357829003601f168201915b505050505081565b60008251116101bc576040517f08c379a00000000000000000000000000000000000000000000000000000000081526004016101b390610701565b60405180910390fd5b6000815111610200576040517f08c379a00000000000000000000000000000000000000000000000000000000081526004016101f79061076d565b60405180910390fd5b6000808360405161021191906107c9565b9081526020016040518091039020805461022a90610684565b90501461026c576040517f08c379a00000000000000000000000000000000000000000000000000000000081526004016102639061082c565b60405180910390fd5b8060008360405161027d91906107c9565b908152602001604051809103902090816102979190610a02565b50816040516102a691906107c9565b60405180910390207f3821fb4ad323658be2eee296ee06377da01cc275fe45548c9b27eca563bcdbf6826040516102dd91906105bb565b60405180910390a25050565b60606000826040516102fb91906107c9565b9081526020016040518091039020805461031490610684565b80601f016020809104026020016040519081016040528092919081815260200182805461034090610684565b801561038d5780601f106103625761010080835404028352916020019161038d565b820191906000526020600020905b81548152906001019060200180831161037057829003601f168201915b50505050509050919050565b6000604051905090565b600080fd5b600080fd5b600080fd5b600080fd5b6000601f19601f8301169050919050565b7f4e487b7100000000000000000000000000000000000000000000000000000000600052604160045260246000fd5b610400826103b7565b810181811067ffffffffffffffff8211171561041f5761041e6103c8565b5b80604052505050565b6000610432610399565b905061043e82826103f7565b919050565b600067ffffffffffffffff82111561045e5761045d6103c8565b5b610467826103b7565b9050602081019050919050565b82818337600083830152505050565b600061049661049184610443565b610428565b9050828152602081018484840111156104b2576104b16103b2565b5b6104bd848285610474565b509392505050565b600082601f8301126104da576104d96103ad565b5b81356104ea848260208601610483565b91505092915050565b600060208284031215610509576105086103a3565b5b600082013567ffffffffffffffff811115610527576105266103a8565b5b610533848285016104c5565b91505092915050565b600081519050919050565b600082825260208201905092915050565b60005b8381101561057657808201518184015260208101905061055b565b60008484015250505050565b600061058d8261053c565b6105978185610547565b93506105a7818560208601610558565b6105b0816103b7565b840191505092915050565b600060208201905081810360008301526105d58184610582565b905092915050565b600080604083850312156105f4576105f36103a3565b5b600083013567ffffffffffffffff811115610612576106116103a8565b5b61061e858286016104c5565b925050602083013567ffffffffffffffff81111561063f5761063e6103a8565b5b61064b858286016104c5565b9150509250929050565b7f4e487b7100000000000000000000000000000000000000000000000000000000600052602260045260246000fd5b6000600282049050600182168061069c57607f821691505b6020821081036106af576106ae610655565b5b50919050565b7f4449442063616e6e6f7420626520656d70747900000000000000000000000000600082015250565b60006106eb601383610547565b91506106f6826106b5565b602082019050919050565b6000602082019050818103600083015261071a816106de565b9050919050565b7f5075626c6963206b65792063616e6e6f7420626520656d707479000000000000600082015250565b6000610757601a83610547565b915061076282610721565b602082019050919050565b600060208201905081810360008301526107868161074a565b9050919050565b600081905092915050565b60006107a38261053c565b6107ad818561078d565b93506107bd818560208601610558565b80840191505092915050565b60006107d58284610798565b915081905092915050565b7f44494420616c7265616479207265676973746572656400000000000000000000600082015250565b6000610816601683610547565b9150610821826107e0565b602082019050919050565b6000602082019050818103600083015261084581610809565b9050919050565b60008190508160005260206000209050919050565b60006020601f8301049050919050565b600082821b905092915050565b6000600883026108ae7fffffffffffffffffffffffffffffffffffffffffffffffffffffffffffffffff82610871565b6108b88683610871565b95508019841693508086168417925050509392505050565b6000819050919050565b6000819050919050565b60006108ff6108fa6108f5846108d0565b6108da565b6108d0565b9050919050565b6000819050919050565b610919836108e4565b61092d61092582610906565b84845461087e565b825550505050565b600090565b610942610935565b61094d818484610910565b505050565b5b818110156109715761096660008261093a565b600181019050610953565b5050565b601f8211156109b6576109878161084c565b61099084610861565b8101602085101561099f578190505b6109b36109ab85610861565b830182610952565b50505b505050565b600082821c905092915050565b60006109d9600019846008026109bb565b1980831691505092915050565b60006109f283836109c8565b9150826002028217905092915050565b610a0b8261053c565b67ffffffffffffffff811115610a2457610a236103c8565b5b610a2e8254610684565b610a39828285610975565b600060209050601f831160018114610a6c5760008415610a5a578287015190505b610a6485826109e6565b865550610acc565b601f198416610a7a8661084c565b60005b82811015610aa257848901518255600182019150602085019450602081019050610a7d565b86831015610abf5784890151610abb601f8916826109c8565b8355505b6001600288020188555050505b50505050505056fea26469706673582212202b29dc4207f5f696823f08da7c635ee995f4e29476d0a0c255a2553f4fa065fe64736f6c63430008130033",
  "immutableReferences": {},
  "source": "// SPDX-License-Identifier: MIT\r\npragma solidity ^0.8.9;\r\n\r\ncontract DIDRegistry {\r\n    mapping(string => string) public didToPublicKey;\r\n    event DIDRegistered(string indexed did, string publicKey);\r\n\r\n    function registerDID(string memory did, string memory publicKey) public {\r\n        require(bytes(did).length > 0, \"DID cannot be empty\");\r\n        require(bytes(publicKey).length > 0, \"Public key cannot be empty\");\r\n        require(bytes(didToPublicKey[did]).length == 0, \"DID already registered\");\r\n        \r\n        didToPublicKey[did] = publicKey;\r\n        emit DIDRegistered(did, publicKey);\r\n    }\r\n\r\n    function resolveDID(string memory did) public view returns (string memory) {\r\n        return didToPublicKey[did];\r\n    }\r\n}\r\n",
  "sourcePath": "C:\\Users\\RDM\\Desktop\\oss\\Data-Security-Project\\AuthentiCred\\blockchain\\Authenticred_contracts\\contracts\\DIDRegistry.sol",
  "compiler": {
    "name": "solc",
    "version": "0.8.19+commit.7dd6d404.Emscripten.clang"
  },
  "schemaVersion": "3.4.16",
  "updatedAt": "2025-06-22T01:23:32.676Z",
  "networkType": "ethereum",
  "devdoc": {
    "kind": "dev",
    "methods": {},
    "version": 1
  },
  "userdoc": {
    "kind": "user",
    "methods": {},
    "version": 1
  }
}