{
  "contractName": "RevocationRegistry",
  "abi": [
    {
      "anonymous": false,
      "inputs": [
        {
          "indexed": true,
          "internalType": "string",
          "name": "credentialId",
          "type": "string"
        }
      ],
      "name": "CredentialRevoked",
      "type": "event"
    },
    {
      "inputs": [
        {
          "internalType": "string",
          "name": "",
          "type": "string"
        }
      ],
      "name": "revokedCredentials",
      "outputs": [
        {
          "internalType": "bool",
          "name": "",
          "type": "bool"
        }
      ],
      "stateMutability": "view",
      "type": "function",
      "constant": true
    },
    {
      "inputs": [
        {
          "internalType": "string",
          "name": "credentialId",
          "type": "string"
        }
      ],
      "name": "revokeCredential",
      "outputs": [],
      "stateMutability": "nonpayable",
      "type": "function"
    },
    {
      "inputs": [
        {
          "internalType": "string",
          "name": "credentialId",
          "type": "string"
        }
      ],
      "name": "isRevoked",
      "outputs": [
        {
          "internalType": "bool",
          "name": "",
          "type": "bool"
        }
      ],
      "stateMutability": "view",
      "type": "function",
      "constant": true
    }
  ],
  "bytecode": "0x608060405234801561001057600080fd5b5061043f806100206000396000f3fe608060405234801561001057600080fd5b50600436106100415760003560e01c806335168a00146100465780635e9a2d2814610076578063ac7ac60414610092575b600080fd5b610060600480360381019061005b9190610302565b6100c2565b60405161006d9190610366565b60405180910390f35b610090600480360381019061008b9190610302565b6100f6565b005b6100ac60048036038101906100a79190610302565b610172565b6040516100b99190610366565b60405180910390f35b600080826040516100d391906103f2565b908152602001604051809103902060009054906101000a900460ff169050919050565b600160008260405161010891906103f2565b908152602001604051809103902060006101000a81548160ff0219169083151502179055508060405161013b91906103f2565b60405180910390207f19d981dae71c0e172d789c8bef41062792bc14fa2e555bba0bae3c104d2b2a4160405160405180910390a250565b6000818051602081018201805184825260208301602085012081835280955050505050506000915054906101000a900460ff1681565b6000604051905090565b600080fd5b600080fd5b600080fd5b600080fd5b6000601f19601f8301169050919050565b7f4e487b7100000000000000000000000000000000000000000000000000000000600052604160045260246000fd5b61020f826101c6565b810181811067ffffffffffffffff8211171561022e5761022d6101d7565b5b80604052505050565b60006102416101a8565b905061024d8282610206565b919050565b600067ffffffffffffffff82111561026d5761026c6101d7565b5b610276826101c6565b9050602081019050919050565b82818337600083830152505050565b60006102a56102a084610252565b610237565b9050828152602081018484840111156102c1576102c06101c1565b5b6102cc848285610283565b509392505050565b600082601f8301126102e9576102e86101bc565b5b81356102f9848260208601610292565b91505092915050565b600060208284031215610318576103176101b2565b5b600082013567ffffffffffffffff811115610336576103356101b7565b5b610342848285016102d4565b91505092915050565b60008115159050919050565b6103608161034b565b82525050565b600060208201905061037b6000830184610357565b92915050565b600081519050919050565b600081905092915050565b60005b838110156103b557808201518184015260208101905061039a565b60008484015250505050565b60006103cc82610381565b6103d6818561038c565b93506103e6818560208601610397565b80840191505092915050565b60006103fe82846103c1565b91508190509291505056fea26469706673582212205af669237a661f5d1bc433113ea5bcd0f799f2518393e092740f11975e521f7664736f6c63430008130033",
  "immutableReferences": {},
  "source": "// SPDX-License-Identifier: MIT\npragma solidity ^0.8.9;\n\ncontract RevocationRegistry {\n    mapping(string => bool) public revokedCredentials;\n    event CredentialRevoked(string indexed credentialId);\n\n    function revokeCredential(string memory credentialId) public {\n        revokedCredentials[credentialId] = true;\n        emit CredentialRevoked(credentialId);\n    }\n\n    function isRevoked(string memory credentialId) public view returns (bool) {\n        return revokedCredentials[credentialId];\n    }\n}\n// This contract allows for the revocation of credentials by their unique identifiers.\n// It provides a way to mark credentials as revoked, ensuring that they can no longer be considered valid.\n// The `revokeCredential` function allows anyone to revoke a credential by providing its ID, while the `isRevoked` function\n// checks if a given credential ID has been revoked.           \n// The `CredentialRevoked` event is emitted whenever a credential is successfully revoked, \n// allowing for tracking and monitoring of revoked credentials on the blockchain.\n// This contract is typically used in conjunction with a DID registry \n// or credential anchor to manage the lifecycle of digital credentials,\n// ensuring that revoked credentials are not mistakenly trusted or used in transactions.\n",
  "sourcePath": "/Users/rdm/Desktop/oss/AuthentiCred/blockchain/Authenticred_contracts/contracts/RevocationRegistry.sol",
  "compiler": {
    "name": "solc",
    "version": "0.8.19+commit.7dd6d404.Emscripten.clang"
  },
  "schemaVersion": "3.4.16",
  "updatedAt": "2025-09-01T12:58:18.114Z",
  "networkType": "ethereum",
  "devdoc": {
    "kind": "dev",
    "methods": {},
    "version": 1
  },
  "userdoc": {
    "kind": "user",
    "methods": {},
    "version": 1
  }
}