{
  "contractName": "TrustRegistry",
  "abi": [
    {
      "anonymous": false,
      "inputs": [
        {
          "indexed": true,
          "internalType": "string",
          "name": "did",
          "type": "string"
        },
        {
          "indexed": false,
          "internalType": "bool",
          "name": "trusted",
          "type": "bool"
        }
      ],
      "name": "TrustStatusUpdated",
      "type": "event"
    },
    {
      "inputs": [
        {
          "internalType": "string",
          "name": "",
          "type": "string"
        }
      ],
      "name": "trustedIssuers",
      "outputs": [
        {
          "internalType": "bool",
          "name": "",
          "type": "bool"
        }
      ],
      "stateMutability": "view",
      "type": "function",
      "constant": true
    },
    {
      "inputs": [
        {
          "internalType": "string",
          "name": "did",
          "type": "string"
        },
        {
          "internalType": "bool",
          "name": "trusted",
          "type": "bool"
        }
      ],
      "name": "setIssuerTrustStatus",
      "outputs": [],
      "stateMutability": "nonpayable",
      "type": "function"
    },
    {
      "inputs": [
        {
          "internalType": "string",
          "name": "did",
          "type": "string"
        }
      ],
      "name": "isIssuerTrusted",
      "outputs": [
        {
          "internalType": "bool",
          "name": "",
          "type": "bool"
        }
      ],
      "stateMutability": "view",
      "type": "function",
      "constant": true
    }
  ],
  "bytecode": "0x608060405234801561001057600080fd5b506104d2806100206000396000f3fe608060405234801561001057600080fd5b50600436106100415760003560e01c8063270a1288146100465780638a85a053146100625780638efbfa5214610092575b600080fd5b610060600480360381019061005b9190610345565b6100c2565b005b61007c600480360381019061007791906103a1565b610149565b60405161008991906103f9565b60405180910390f35b6100ac60048036038101906100a791906103a1565b61017d565b6040516100b991906103f9565b60405180910390f35b806000836040516100d39190610485565b908152602001604051809103902060006101000a81548160ff021916908315150217905550816040516101069190610485565b60405180910390207fc06e6bfd58bccbefe6ddb8f17caf0e9365443292489e55adb2335971d0d9240b8260405161013d91906103f9565b60405180910390a25050565b6000808260405161015a9190610485565b908152602001604051809103902060009054906101000a900460ff169050919050565b6000818051602081018201805184825260208301602085012081835280955050505050506000915054906101000a900460ff1681565b6000604051905090565b600080fd5b600080fd5b600080fd5b600080fd5b6000601f19601f8301169050919050565b7f4e487b7100000000000000000000000000000000000000000000000000000000600052604160045260246000fd5b61021a826101d1565b810181811067ffffffffffffffff82111715610239576102386101e2565b5b80604052505050565b600061024c6101b3565b90506102588282610211565b919050565b600067ffffffffffffffff821115610278576102776101e2565b5b610281826101d1565b9050602081019050919050565b82818337600083830152505050565b60006102b06102ab8461025d565b610242565b9050828152602081018484840111156102cc576102cb6101cc565b5b6102d784828561028e565b509392505050565b600082601f8301126102f4576102f36101c7565b5b813561030484826020860161029d565b91505092915050565b60008115159050919050565b6103228161030d565b811461032d57600080fd5b50565b60008135905061033f81610319565b92915050565b6000806040838503121561035c5761035b6101bd565b5b600083013567ffffffffffffffff81111561037a576103796101c2565b5b610386858286016102df565b925050602061039785828601610330565b9150509250929050565b6000602082840312156103b7576103b66101bd565b5b600082013567ffffffffffffffff8111156103d5576103d46101c2565b5b6103e1848285016102df565b91505092915050565b6103f38161030d565b82525050565b600060208201905061040e60008301846103ea565b92915050565b600081519050919050565b600081905092915050565b60005b8381101561044857808201518184015260208101905061042d565b60008484015250505050565b600061045f82610414565b610469818561041f565b935061047981856020860161042a565b80840191505092915050565b60006104918284610454565b91508190509291505056fea26469706673582212205dfee9a9a55f76c4dabba6036a98fe8c5b378b1ca79343cd3ce7cbc13bc90f5f64736f6c63430008130033",
  "immutableReferences": {},
  "source": "// SPDX-License-Identifier: MIT\npragma solidity ^0.8.9;\n\ncontract TrustRegistry {\n    mapping(string => bool) public trustedIssuers;\n    event TrustStatusUpdated(string indexed did, bool trusted);\n\n    function setIssuerTrustStatus(string memory did, bool trusted) public {\n        trustedIssuers[did] = trusted;\n        emit TrustStatusUpdated(did, trusted);\n    }\n\n    function isIssuerTrusted(string memory did) public view returns (bool) {\n        return trustedIssuers[did];\n    }\n}\n\n// This contract allows for the management of trust relationships in a decentralized manner.\n// It provides a way to set and check the trust status of issuers identified by their decentralized identifiers (DIDs).\n// The `setIssuerTrustStatus` function allows anyone to update the trust status of an issuer \n",
  "sourcePath": "/Users/rdm/Desktop/oss/AuthentiCred/blockchain/Authenticred_contracts/contracts/TrustRegistry.sol",
  "compiler": {
    "name": "solc",
    "version": "0.8.19+commit.7dd6d404.Emscripten.clang"
  },
  "schemaVersion": "3.4.16",
  "updatedAt": "2025-08-31T18:52:22.057Z",
  "networkType": "ethereum",
  "devdoc": {
    "kind": "dev",
    "methods": {},
    "version": 1
  },
  "userdoc": {
    "kind": "user",
    "methods": {},
    "version": 1
  }
}